{
  "contractName": "Reservation",
  "abi": [
    {
      "inputs": [],
      "stateMutability": "nonpayable",
      "type": "constructor"
    },
    {
      "anonymous": false,
      "inputs": [
        {
          "indexed": false,
          "internalType": "address",
          "name": "user",
          "type": "address"
        },
        {
          "indexed": false,
          "internalType": "uint256",
          "name": "roomId",
          "type": "uint256"
        },
        {
          "indexed": false,
          "internalType": "string",
          "name": "company",
          "type": "string"
        },
        {
          "indexed": false,
          "internalType": "string",
          "name": "day",
          "type": "string"
        },
        {
          "indexed": false,
          "internalType": "string",
          "name": "hour",
          "type": "string"
        },
        {
          "indexed": false,
          "internalType": "bool",
          "name": "isBooked",
          "type": "bool"
        }
      ],
      "name": "BookingAdded",
      "type": "event"
    },
    {
      "anonymous": false,
      "inputs": [
        {
          "indexed": false,
          "internalType": "address",
          "name": "user",
          "type": "address"
        },
        {
          "indexed": false,
          "internalType": "uint256",
          "name": "roomId",
          "type": "uint256"
        },
        {
          "indexed": false,
          "internalType": "string",
          "name": "company",
          "type": "string"
        },
        {
          "indexed": false,
          "internalType": "string",
          "name": "day",
          "type": "string"
        },
        {
          "indexed": false,
          "internalType": "string",
          "name": "hour",
          "type": "string"
        },
        {
          "indexed": false,
          "internalType": "bool",
          "name": "isBooked",
          "type": "bool"
        }
      ],
      "name": "BookingCancelled",
      "type": "event"
    },
    {
      "anonymous": false,
      "inputs": [
        {
          "indexed": false,
          "internalType": "address",
          "name": "user",
          "type": "address"
        },
        {
          "indexed": false,
          "internalType": "uint256",
          "name": "roomId",
          "type": "uint256"
        },
        {
          "indexed": false,
          "internalType": "string",
          "name": "company",
          "type": "string"
        },
        {
          "indexed": false,
          "internalType": "string",
          "name": "day",
          "type": "string"
        },
        {
          "indexed": false,
          "internalType": "string",
          "name": "hour",
          "type": "string"
        },
        {
          "indexed": false,
          "internalType": "bool",
          "name": "isBooked",
          "type": "bool"
        }
      ],
      "name": "BookingFailed",
      "type": "event"
    },
    {
      "anonymous": false,
      "inputs": [
        {
          "indexed": false,
          "internalType": "uint256",
          "name": "id",
          "type": "uint256"
        },
        {
          "indexed": false,
          "internalType": "string",
          "name": "name",
          "type": "string"
        }
      ],
      "name": "RoomAdded",
      "type": "event"
    },
    {
      "inputs": [
        {
          "internalType": "uint256",
          "name": "",
          "type": "uint256"
        },
        {
          "internalType": "string",
          "name": "",
          "type": "string"
        },
        {
          "internalType": "string",
          "name": "",
          "type": "string"
        }
      ],
      "name": "bookings",
      "outputs": [
        {
          "internalType": "address",
          "name": "user",
          "type": "address"
        },
        {
          "internalType": "uint256",
          "name": "roomId",
          "type": "uint256"
        },
        {
          "internalType": "string",
          "name": "company",
          "type": "string"
        },
        {
          "internalType": "string",
          "name": "day",
          "type": "string"
        },
        {
          "internalType": "string",
          "name": "hour",
          "type": "string"
        },
        {
          "internalType": "bool",
          "name": "isBooked",
          "type": "bool"
        }
      ],
      "stateMutability": "view",
      "type": "function",
      "constant": true
    },
    {
      "inputs": [
        {
          "internalType": "string",
          "name": "",
          "type": "string"
        },
        {
          "internalType": "string",
          "name": "",
          "type": "string"
        },
        {
          "internalType": "string",
          "name": "",
          "type": "string"
        }
      ],
      "name": "bookingsCount",
      "outputs": [
        {
          "internalType": "uint256",
          "name": "",
          "type": "uint256"
        }
      ],
      "stateMutability": "view",
      "type": "function",
      "constant": true
    },
    {
      "inputs": [],
      "name": "maxBookingsPerCompany",
      "outputs": [
        {
          "internalType": "uint256",
          "name": "",
          "type": "uint256"
        }
      ],
      "stateMutability": "view",
      "type": "function",
      "constant": true
    },
    {
      "inputs": [],
      "name": "maxRooms",
      "outputs": [
        {
          "internalType": "uint256",
          "name": "",
          "type": "uint256"
        }
      ],
      "stateMutability": "view",
      "type": "function",
      "constant": true
    },
    {
      "inputs": [],
      "name": "maxSlots",
      "outputs": [
        {
          "internalType": "uint256",
          "name": "",
          "type": "uint256"
        }
      ],
      "stateMutability": "view",
      "type": "function",
      "constant": true
    },
    {
      "inputs": [
        {
          "internalType": "uint256",
          "name": "",
          "type": "uint256"
        }
      ],
      "name": "rooms",
      "outputs": [
        {
          "internalType": "uint256",
          "name": "id",
          "type": "uint256"
        },
        {
          "internalType": "string",
          "name": "name",
          "type": "string"
        }
      ],
      "stateMutability": "view",
      "type": "function",
      "constant": true
    },
    {
      "inputs": [],
      "name": "roomsCount",
      "outputs": [
        {
          "internalType": "uint256",
          "name": "",
          "type": "uint256"
        }
      ],
      "stateMutability": "view",
      "type": "function",
      "constant": true
    },
    {
      "inputs": [
        {
          "internalType": "address",
          "name": "",
          "type": "address"
        }
      ],
      "name": "users",
      "outputs": [
        {
          "internalType": "uint256",
          "name": "id",
          "type": "uint256"
        },
        {
          "internalType": "string",
          "name": "company",
          "type": "string"
        },
        {
          "internalType": "bool",
          "name": "set",
          "type": "bool"
        }
      ],
      "stateMutability": "view",
      "type": "function",
      "constant": true
    },
    {
      "inputs": [],
      "name": "usersCount",
      "outputs": [
        {
          "internalType": "uint256",
          "name": "",
          "type": "uint256"
        }
      ],
      "stateMutability": "view",
      "type": "function",
      "constant": true
    },
    {
      "inputs": [
        {
          "internalType": "uint256",
          "name": "_roomId",
          "type": "uint256"
        },
        {
          "internalType": "string",
          "name": "_day",
          "type": "string"
        },
        {
          "internalType": "string",
          "name": "_hour",
          "type": "string"
        }
      ],
      "name": "addBooking",
      "outputs": [],
      "stateMutability": "nonpayable",
      "type": "function"
    },
    {
      "inputs": [
        {
          "internalType": "uint256",
          "name": "_roomId",
          "type": "uint256"
        },
        {
          "internalType": "string",
          "name": "_day",
          "type": "string"
        },
        {
          "internalType": "string",
          "name": "_hour",
          "type": "string"
        }
      ],
      "name": "cancelBooking",
      "outputs": [],
      "stateMutability": "nonpayable",
      "type": "function"
    },
    {
      "inputs": [
        {
          "internalType": "uint256",
          "name": "_roomId",
          "type": "uint256"
        },
        {
          "internalType": "string",
          "name": "_day",
          "type": "string"
        }
      ],
      "name": "getAvailabilities",
      "outputs": [
        {
          "components": [
            {
              "internalType": "address",
              "name": "user",
              "type": "address"
            },
            {
              "internalType": "uint256",
              "name": "roomId",
              "type": "uint256"
            },
            {
              "internalType": "string",
              "name": "company",
              "type": "string"
            },
            {
              "internalType": "string",
              "name": "day",
              "type": "string"
            },
            {
              "internalType": "string",
              "name": "hour",
              "type": "string"
            },
            {
              "internalType": "bool",
              "name": "isBooked",
              "type": "bool"
            }
          ],
          "internalType": "struct Reservation.Booking[]",
          "name": "",
          "type": "tuple[]"
        }
      ],
      "stateMutability": "view",
      "type": "function",
      "constant": true
    }
  ],
  "bytecode": "0x608060405260146000556018600155600a6002556040518061030001604052806040518060400160405280600581526020017f30303a303000000000000000000000000000000000000000000000000000000081525081526020016040518060400160405280600581526020017f30313a303000000000000000000000000000000000000000000000000000000081525081526020016040518060400160405280600581526020017f30323a303000000000000000000000000000000000000000000000000000000081525081526020016040518060400160405280600581526020017f30333a303000000000000000000000000000000000000000000000000000000081525081526020016040518060400160405280600581526020017f30343a303000000000000000000000000000000000000000000000000000000081525081526020016040518060400160405280600581526020017f30353a303000000000000000000000000000000000000000000000000000000081525081526020016040518060400160405280600581526020017f30363a303000000000000000000000000000000000000000000000000000000081525081526020016040518060400160405280600581526020017f30373a303000000000000000000000000000000000000000000000000000000081525081526020016040518060400160405280600581526020017f30383a303000000000000000000000000000000000000000000000000000000081525081526020016040518060400160405280600581526020017f30393a303000000000000000000000000000000000000000000000000000000081525081526020016040518060400160405280600581526020017f31303a303000000000000000000000000000000000000000000000000000000081525081526020016040518060400160405280600581526020017f31313a303000000000000000000000000000000000000000000000000000000081525081526020016040518060400160405280600581526020017f31323a303000000000000000000000000000000000000000000000000000000081525081526020016040518060400160405280600581526020017f31333a303000000000000000000000000000000000000000000000000000000081525081526020016040518060400160405280600581526020017f31343a303000000000000000000000000000000000000000000000000000000081525081526020016040518060400160405280600581526020017f31353a303000000000000000000000000000000000000000000000000000000081525081526020016040518060400160405280600581526020017f31363a303000000000000000000000000000000000000000000000000000000081525081526020016040518060400160405280600581526020017f31373a303000000000000000000000000000000000000000000000000000000081525081526020016040518060400160405280600581526020017f31383a303000000000000000000000000000000000000000000000000000000081525081526020016040518060400160405280600581526020017f31393a303000000000000000000000000000000000000000000000000000000081525081526020016040518060400160405280600581526020017f32303a303000000000000000000000000000000000000000000000000000000081525081526020016040518060400160405280600581526020017f32313a303000000000000000000000000000000000000000000000000000000081525081526020016040518060400160405280600581526020017f32323a303000000000000000000000000000000000000000000000000000000081525081526020016040518060400160405280600581526020017f32333a30300000000000000000000000000000000000000000000000000000008152508152506003906018620005b792919062000d8d565b50348015620005c557600080fd5b506000601e819055506000601c8190555062000633600073b1e2cc5abb7a289060e85d156b039f9b0b81ef396040518060400160405280600881526020017f436f6361436f6c6100000000000000000000000000000000000000000000000081525062000a0a60201b60201c565b62000690600173781b25dda486994bea9ead7f9c90ffb0018169446040518060400160405280600881526020017f436f6361436f6c6100000000000000000000000000000000000000000000000081525062000a0a60201b60201c565b620006ed60027395cc8b1391664bdb54d262618bbf3f89b76445516040518060400160405280600881526020017f436f6361436f6c6100000000000000000000000000000000000000000000000081525062000a0a60201b60201c565b6200074a600373da9967309b1a83e6286fc8117fc519847e2cc8586040518060400160405280600881526020017f436f6361436f6c6100000000000000000000000000000000000000000000000081525062000a0a60201b60201c565b620007a760047338753df5003429ca9ff2cc229c4da70a639e4ad16040518060400160405280600881526020017f436f6361436f6c6100000000000000000000000000000000000000000000000081525062000a0a60201b60201c565b62000804600573a559396f98ff5b9aec965934e077b79bde0e2e166040518060400160405280600981526020017f5065707369436f6c61000000000000000000000000000000000000000000000081525062000a0a60201b60201c565b62000861600673a66cac55f34c1705d6c6ca8c8f482d019e30f2a66040518060400160405280600981526020017f5065707369436f6c61000000000000000000000000000000000000000000000081525062000a0a60201b60201c565b620008be6007739a4b515b2b9362766f34126555503912c17757716040518060400160405280600981526020017f5065707369436f6c61000000000000000000000000000000000000000000000081525062000a0a60201b60201c565b6200091b600873f59515fb5b4fcaad851972eb4b3bd18fe3c172536040518060400160405280600981526020017f5065707369436f6c61000000000000000000000000000000000000000000000081525062000a0a60201b60201c565b6200097860097370e1b47c4ee2353d0148de9cddd6f797e7ec7cc66040518060400160405280600981526020017f5065707369436f6c61000000000000000000000000000000000000000000000081525062000a0a60201b60201c565b60005b60005481101562000a0357620009ed620009e16040518060400160405280600581526020017f526f6f6d20000000000000000000000000000000000000000000000000000000815250620009d58462000b3360201b60201c565b62000cad60201b60201c565b62000cdb60201b60201c565b8080620009fa9062000f3e565b9150506200097b565b50620012d9565b6000601b60008473ffffffffffffffffffffffffffffffffffffffff1673ffffffffffffffffffffffffffffffffffffffff16815260200190815260200160002090508060020160009054906101000a900460ff161562000a6a57600080fd5b604051806060016040528085815260200183815260200160011515815250601b60008573ffffffffffffffffffffffffffffffffffffffff1673ffffffffffffffffffffffffffffffffffffffff16815260200190815260200160002060008201518160000155602082015181600101908051906020019062000aef92919062000de7565b5060408201518160020160006101000a81548160ff021916908315150217905550905050601c600081548092919062000b289062000f3e565b919050555050505050565b6060600082141562000b7d576040518060400160405280600181526020017f3000000000000000000000000000000000000000000000000000000000000000815250905062000ca8565b600082905060005b6000821462000bb557808062000b9b9062000f3e565b915050600a8262000bad919062000fbb565b915062000b85565b60008167ffffffffffffffff81111562000bd45762000bd362000ff3565b5b6040519080825280601f01601f19166020018201604052801562000c075781602001600182028036833780820191505090505b5090505b6000851462000ca15760018262000c23919062001022565b9150600a8562000c3491906200105d565b603062000c42919062001095565b60f81b81838151811062000c5b5762000c5a620010f2565b5b60200101907effffffffffffffffffffffffffffffffffffffffffffffffffffffffffffff1916908160001a905350600a8562000c99919062000fbb565b945062000c0b565b8093505050505b919050565b6060828260405160200162000cc4929190620011a4565b604051602081830303815290604052905092915050565b6040518060400160405280601e54815260200182815250601d6000601e54815260200190815260200160002060008201518160000155602082015181600101908051906020019062000d2f92919062000de7565b50905050601e600081548092919062000d489062000f3e565b91905055507f1faa4180c1828eb18f05235f11241ad455e5b3554bdc4594ec6a4d1a261f76d1601e548260405162000d8292919062001240565b60405180910390a150565b826018810192821562000dd4579160200282015b8281111562000dd357825182908051906020019062000dc292919062000de7565b509160200191906001019062000da1565b5b50905062000de3919062000e78565b5090565b82805462000df590620012a3565b90600052602060002090601f01602090048101928262000e19576000855562000e65565b82601f1062000e3457805160ff191683800117855562000e65565b8280016001018555821562000e65579182015b8281111562000e6457825182559160200191906001019062000e47565b5b50905062000e74919062000ea0565b5090565b5b8082111562000e9c576000818162000e92919062000ebf565b5060010162000e79565b5090565b5b8082111562000ebb57600081600090555060010162000ea1565b5090565b50805462000ecd90620012a3565b6000825580601f1062000ee1575062000f02565b601f01602090049060005260206000209081019062000f01919062000ea0565b5b50565b7f4e487b7100000000000000000000000000000000000000000000000000000000600052601160045260246000fd5b6000819050919050565b600062000f4b8262000f34565b91507fffffffffffffffffffffffffffffffffffffffffffffffffffffffffffffffff82141562000f815762000f8062000f05565b5b600182019050919050565b7f4e487b7100000000000000000000000000000000000000000000000000000000600052601260045260246000fd5b600062000fc88262000f34565b915062000fd58362000f34565b92508262000fe85762000fe762000f8c565b5b828204905092915050565b7f4e487b7100000000000000000000000000000000000000000000000000000000600052604160045260246000fd5b60006200102f8262000f34565b91506200103c8362000f34565b92508282101562001052576200105162000f05565b5b828203905092915050565b60006200106a8262000f34565b9150620010778362000f34565b9250826200108a576200108962000f8c565b5b828206905092915050565b6000620010a28262000f34565b9150620010af8362000f34565b9250827fffffffffffffffffffffffffffffffffffffffffffffffffffffffffffffffff03821115620010e757620010e662000f05565b5b828201905092915050565b7f4e487b7100000000000000000000000000000000000000000000000000000000600052603260045260246000fd5b600081519050919050565b600081905092915050565b60005b83811015620011575780820151818401526020810190506200113a565b8381111562001167576000848401525b50505050565b60006200117a8262001121565b6200118681856200112c565b93506200119881856020860162001137565b80840191505092915050565b6000620011b282856200116d565b9150620011c082846200116d565b91508190509392505050565b620011d78162000f34565b82525050565b600082825260208201905092915050565b6000601f19601f8301169050919050565b60006200120c8262001121565b620012188185620011dd565b93506200122a81856020860162001137565b6200123581620011ee565b840191505092915050565b6000604082019050620012576000830185620011cc565b81810360208301526200126b8184620011ff565b90509392505050565b7f4e487b7100000000000000000000000000000000000000000000000000000000600052602260045260246000fd5b60006002820490506001821680620012bc57607f821691505b60208210811415620012d357620012d262001274565b5b50919050565b611eb580620012e96000396000f3fe608060405234801561001057600080fd5b50600436106100b45760003560e01c80636ba13a82116100715780636ba13a82146101a7578063888ddf76146101c5578063a87430ba146101e1578063b71416d014610213578063cbd69f3f14610231578063f737558e1461024f576100b4565b80631bae0ac8146100b95780631d66216d146100ea5780632bd75ad91461010857806341b82f3f1461013857806345fbf732146101565780634c69ea831461018b575b600080fd5b6100d360048036038101906100ce919061141b565b61027f565b6040516100e19291906114f0565b60405180910390f35b6100f261032b565b6040516100ff9190611520565b60405180910390f35b610122600480360381019061011d9190611670565b610331565b60405161012f9190611520565b60405180910390f35b6101406103a5565b60405161014d9190611520565b60405180910390f35b610170600480360381019061016b9190611717565b6103ab565b604051610182969594939291906117fe565b60405180910390f35b6101a560048036038101906101a09190611717565b6105f2565b005b6101af610834565b6040516101bc9190611520565b60405180910390f35b6101df60048036038101906101da9190611717565b61083a565b005b6101fb60048036038101906101f691906118a0565b610cd2565b60405161020a939291906118cd565b60405180910390f35b61021b610d91565b6040516102289190611520565b60405180910390f35b610239610d97565b6040516102469190611520565b60405180910390f35b6102696004803603810190610264919061190b565b610d9d565b6040516102769190611b37565b60405180910390f35b601d6020528060005260406000206000915090508060000154908060010180546102a890611b88565b80601f01602080910402602001604051908101604052809291908181526020018280546102d490611b88565b80156103215780601f106102f657610100808354040283529160200191610321565b820191906000526020600020905b81548152906001019060200180831161030457829003601f168201915b5050505050905082565b60005481565b602083805160208101820180518482526020830160208501208183528095505050505050828051602081018201805184825260208301602085012081835280955050505050508180516020810182018051848252602083016020850120818352809550505050505060009250925050505481565b601e5481565b601f602052826000526040600020828051602081018201805184825260208301602085012081835280955050505050508180516020810182018051848252602083016020850120818352809550505050505060009250925050508060000160009054906101000a900473ffffffffffffffffffffffffffffffffffffffff169080600101549080600201805461044090611b88565b80601f016020809104026020016040519081016040528092919081815260200182805461046c90611b88565b80156104b95780601f1061048e576101008083540402835291602001916104b9565b820191906000526020600020905b81548152906001019060200180831161049c57829003601f168201915b5050505050908060030180546104ce90611b88565b80601f01602080910402602001604051908101604052809291908181526020018280546104fa90611b88565b80156105475780601f1061051c57610100808354040283529160200191610547565b820191906000526020600020905b81548152906001019060200180831161052a57829003601f168201915b50505050509080600401805461055c90611b88565b80601f016020809104026020016040519081016040528092919081815260200182805461058890611b88565b80156105d55780601f106105aa576101008083540402835291602001916105d5565b820191906000526020600020905b8154815290600101906020018083116105b857829003601f168201915b5050505050908060050160009054906101000a900460ff16905086565b3373ffffffffffffffffffffffffffffffffffffffff16601f60008581526020019081526020016000208360405161062a9190611bf6565b9081526020016040518091039020826040516106469190611bf6565b908152602001604051809103902060000160009054906101000a900473ffffffffffffffffffffffffffffffffffffffff1673ffffffffffffffffffffffffffffffffffffffff161461069857600080fd5b6000601f6000858152602001908152602001600020836040516106bb9190611bf6565b9081526020016040518091039020826040516106d79190611bf6565b908152602001604051809103902060050160006101000a81548160ff0219169083151502179055506020601b60003373ffffffffffffffffffffffffffffffffffffffff1673ffffffffffffffffffffffffffffffffffffffff1681526020019081526020016000206001016040516107509190611ca1565b90815260200160405180910390208260405161076c9190611bf6565b9081526020016040518091039020816040516107889190611bf6565b908152602001604051809103902060008154809291906107a790611ce7565b91905055507f6162f6757cdf9848a3518550a404a783ca5293fe73b83336978dbdcce1b880b23384601b60003373ffffffffffffffffffffffffffffffffffffffff1673ffffffffffffffffffffffffffffffffffffffff1681526020019081526020016000206001018585600060405161082796959493929190611d91565b60405180910390a1505050565b601c5481565b610845838383611268565b80156108e957506002546020601b60003373ffffffffffffffffffffffffffffffffffffffff1673ffffffffffffffffffffffffffffffffffffffff1681526020019081526020016000206001016040516108a09190611ca1565b9081526020016040518091039020836040516108bc9190611bf6565b9081526020016040518091039020826040516108d89190611bf6565b908152602001604051809103902054105b15610c49576040518060c001604052803373ffffffffffffffffffffffffffffffffffffffff168152602001848152602001601b60003373ffffffffffffffffffffffffffffffffffffffff1673ffffffffffffffffffffffffffffffffffffffff168152602001908152602001600020600101805461096890611b88565b80601f016020809104026020016040519081016040528092919081815260200182805461099490611b88565b80156109e15780601f106109b6576101008083540402835291602001916109e1565b820191906000526020600020905b8154815290600101906020018083116109c457829003601f168201915b5050505050815260200183815260200182815260200160011515815250601f600085815260200190815260200160002083604051610a1f9190611bf6565b908152602001604051809103902082604051610a3b9190611bf6565b908152602001604051809103902060008201518160000160006101000a81548173ffffffffffffffffffffffffffffffffffffffff021916908373ffffffffffffffffffffffffffffffffffffffff160217905550602082015181600101556040820151816002019080519060200190610ab69291906112e0565b506060820151816003019080519060200190610ad39291906112e0565b506080820151816004019080519060200190610af09291906112e0565b5060a08201518160050160006101000a81548160ff0219169083151502179055509050506020601b60003373ffffffffffffffffffffffffffffffffffffffff1673ffffffffffffffffffffffffffffffffffffffff168152602001908152602001600020600101604051610b659190611ca1565b908152602001604051809103902082604051610b819190611bf6565b908152602001604051809103902081604051610b9d9190611bf6565b90815260200160405180910390206000815480929190610bbc90611e07565b91905055507f565d7742080eb4b376393dc13ab830d7f01922ddb591a4e7e312dabdb5ddd9a23384601b60003373ffffffffffffffffffffffffffffffffffffffff1673ffffffffffffffffffffffffffffffffffffffff16815260200190815260200160002060010185856001604051610c3c96959493929190611d91565b60405180910390a1610ccd565b7f3428fa63741ca29366fa0f1bc137982f257acbbd6bf0a7d0b0253cbbb26f178c3384601b60003373ffffffffffffffffffffffffffffffffffffffff1673ffffffffffffffffffffffffffffffffffffffff16815260200190815260200160002060010185856000604051610cc496959493929190611d91565b60405180910390a15b505050565b601b602052806000526040600020600091509050806000015490806001018054610cfb90611b88565b80601f0160208091040260200160405190810160405280929190818152602001828054610d2790611b88565b8015610d745780601f10610d4957610100808354040283529160200191610d74565b820191906000526020600020905b815481529060010190602001808311610d5757829003601f168201915b5050505050908060020160009054906101000a900460ff16905083565b60025481565b60015481565b6060600060015467ffffffffffffffff811115610dbd57610dbc611545565b5b604051908082528060200260200182016040528015610df657816020015b610de3611366565b815260200190600190039081610ddb5790505b50905060005b601881101561125d57601f600086815260200190815260200160002084604051610e269190611bf6565b908152602001604051809103902060038260188110610e4857610e47611e50565b5b01604051610e569190611ca1565b908152602001604051809103902060050160009054906101000a900460ff161561113857601f600086815260200190815260200160002084604051610e9b9190611bf6565b908152602001604051809103902060038260188110610ebd57610ebc611e50565b5b01604051610ecb9190611ca1565b90815260200160405180910390206040518060c00160405290816000820160009054906101000a900473ffffffffffffffffffffffffffffffffffffffff1673ffffffffffffffffffffffffffffffffffffffff1673ffffffffffffffffffffffffffffffffffffffff16815260200160018201548152602001600282018054610f5490611b88565b80601f0160208091040260200160405190810160405280929190818152602001828054610f8090611b88565b8015610fcd5780601f10610fa257610100808354040283529160200191610fcd565b820191906000526020600020905b815481529060010190602001808311610fb057829003601f168201915b50505050508152602001600382018054610fe690611b88565b80601f016020809104026020016040519081016040528092919081815260200182805461101290611b88565b801561105f5780601f106110345761010080835404028352916020019161105f565b820191906000526020600020905b81548152906001019060200180831161104257829003601f168201915b5050505050815260200160048201805461107890611b88565b80601f01602080910402602001604051908101604052809291908181526020018280546110a490611b88565b80156110f15780601f106110c6576101008083540402835291602001916110f1565b820191906000526020600020905b8154815290600101906020018083116110d457829003601f168201915b505050505081526020016005820160009054906101000a900460ff16151515158152505082828151811061112857611127611e50565b5b602002602001018190525061124a565b6040518060c00160405280600073ffffffffffffffffffffffffffffffffffffffff1681526020018681526020016040518060200160405280600081525081526020018581526020016003836018811061119557611194611e50565b5b0180546111a190611b88565b80601f01602080910402602001604051908101604052809291908181526020018280546111cd90611b88565b801561121a5780601f106111ef5761010080835404028352916020019161121a565b820191906000526020600020905b8154815290600101906020018083116111fd57829003601f168201915b505050505081526020016000151581525082828151811061123e5761123d611e50565b5b60200260200101819052505b808061125590611e07565b915050610dfc565b508091505092915050565b6000601f60008581526020019081526020016000208360405161128b9190611bf6565b9081526020016040518091039020826040516112a79190611bf6565b908152602001604051809103902060050160009054906101000a900460ff16156112d457600090506112d9565b600190505b9392505050565b8280546112ec90611b88565b90600052602060002090601f01602090048101928261130e5760008555611355565b82601f1061132757805160ff1916838001178555611355565b82800160010185558215611355579182015b82811115611354578251825591602001919060010190611339565b5b50905061136291906113b4565b5090565b6040518060c00160405280600073ffffffffffffffffffffffffffffffffffffffff168152602001600081526020016060815260200160608152602001606081526020016000151581525090565b5b808211156113cd5760008160009055506001016113b5565b5090565b6000604051905090565b600080fd5b600080fd5b6000819050919050565b6113f8816113e5565b811461140357600080fd5b50565b600081359050611415816113ef565b92915050565b600060208284031215611431576114306113db565b5b600061143f84828501611406565b91505092915050565b611451816113e5565b82525050565b600081519050919050565b600082825260208201905092915050565b60005b83811015611491578082015181840152602081019050611476565b838111156114a0576000848401525b50505050565b6000601f19601f8301169050919050565b60006114c282611457565b6114cc8185611462565b93506114dc818560208601611473565b6114e5816114a6565b840191505092915050565b60006040820190506115056000830185611448565b818103602083015261151781846114b7565b90509392505050565b60006020820190506115356000830184611448565b92915050565b600080fd5b600080fd5b7f4e487b7100000000000000000000000000000000000000000000000000000000600052604160045260246000fd5b61157d826114a6565b810181811067ffffffffffffffff8211171561159c5761159b611545565b5b80604052505050565b60006115af6113d1565b90506115bb8282611574565b919050565b600067ffffffffffffffff8211156115db576115da611545565b5b6115e4826114a6565b9050602081019050919050565b82818337600083830152505050565b600061161361160e846115c0565b6115a5565b90508281526020810184848401111561162f5761162e611540565b5b61163a8482856115f1565b509392505050565b600082601f8301126116575761165661153b565b5b8135611667848260208601611600565b91505092915050565b600080600060608486031215611689576116886113db565b5b600084013567ffffffffffffffff8111156116a7576116a66113e0565b5b6116b386828701611642565b935050602084013567ffffffffffffffff8111156116d4576116d36113e0565b5b6116e086828701611642565b925050604084013567ffffffffffffffff811115611701576117006113e0565b5b61170d86828701611642565b9150509250925092565b6000806000606084860312156117305761172f6113db565b5b600061173e86828701611406565b935050602084013567ffffffffffffffff81111561175f5761175e6113e0565b5b61176b86828701611642565b925050604084013567ffffffffffffffff81111561178c5761178b6113e0565b5b61179886828701611642565b9150509250925092565b600073ffffffffffffffffffffffffffffffffffffffff82169050919050565b60006117cd826117a2565b9050919050565b6117dd816117c2565b82525050565b60008115159050919050565b6117f8816117e3565b82525050565b600060c08201905061181360008301896117d4565b6118206020830188611448565b818103604083015261183281876114b7565b9050818103606083015261184681866114b7565b9050818103608083015261185a81856114b7565b905061186960a08301846117ef565b979650505050505050565b61187d816117c2565b811461188857600080fd5b50565b60008135905061189a81611874565b92915050565b6000602082840312156118b6576118b56113db565b5b60006118c48482850161188b565b91505092915050565b60006060820190506118e26000830186611448565b81810360208301526118f481856114b7565b905061190360408301846117ef565b949350505050565b60008060408385031215611922576119216113db565b5b600061193085828601611406565b925050602083013567ffffffffffffffff811115611951576119506113e0565b5b61195d85828601611642565b9150509250929050565b600081519050919050565b600082825260208201905092915050565b6000819050602082019050919050565b61199c816117c2565b82525050565b6119ab816113e5565b82525050565b600082825260208201905092915050565b60006119cd82611457565b6119d781856119b1565b93506119e7818560208601611473565b6119f0816114a6565b840191505092915050565b611a04816117e3565b82525050565b600060c083016000830151611a226000860182611993565b506020830151611a3560208601826119a2565b5060408301518482036040860152611a4d82826119c2565b91505060608301518482036060860152611a6782826119c2565b91505060808301518482036080860152611a8182826119c2565b91505060a0830151611a9660a08601826119fb565b508091505092915050565b6000611aad8383611a0a565b905092915050565b6000602082019050919050565b6000611acd82611967565b611ad78185611972565b935083602082028501611ae985611983565b8060005b85811015611b255784840389528151611b068582611aa1565b9450611b1183611ab5565b925060208a01995050600181019050611aed565b50829750879550505050505092915050565b60006020820190508181036000830152611b518184611ac2565b905092915050565b7f4e487b7100000000000000000000000000000000000000000000000000000000600052602260045260246000fd5b60006002820490506001821680611ba057607f821691505b60208210811415611bb457611bb3611b59565b5b50919050565b600081905092915050565b6000611bd082611457565b611bda8185611bba565b9350611bea818560208601611473565b80840191505092915050565b6000611c028284611bc5565b915081905092915050565b60008190508160005260206000209050919050565b60008154611c2f81611b88565b611c398186611bba565b94506001821660008114611c545760018114611c6557611c98565b60ff19831686528186019350611c98565b611c6e85611c0d565b60005b83811015611c9057815481890152600182019150602081019050611c71565b838801955050505b50505092915050565b6000611cad8284611c22565b915081905092915050565b7f4e487b7100000000000000000000000000000000000000000000000000000000600052601160045260246000fd5b6000611cf2826113e5565b91506000821415611d0657611d05611cb8565b5b600182039050919050565b60008154611d1e81611b88565b611d288186611462565b94506001821660008114611d435760018114611d5557611d88565b60ff1983168652602086019350611d88565b611d5e85611c0d565b60005b83811015611d8057815481890152600182019150602081019050611d61565b808801955050505b50505092915050565b600060c082019050611da660008301896117d4565b611db36020830188611448565b8181036040830152611dc58187611d11565b90508181036060830152611dd981866114b7565b90508181036080830152611ded81856114b7565b9050611dfc60a08301846117ef565b979650505050505050565b6000611e12826113e5565b91507fffffffffffffffffffffffffffffffffffffffffffffffffffffffffffffffff821415611e4557611e44611cb8565b5b600182019050919050565b7f4e487b7100000000000000000000000000000000000000000000000000000000600052603260045260246000fdfea2646970667358221220be69e637306347ce491130485777f40c360196b9eecbaa9903127e0a9482308864736f6c634300080a0033",
  "immutableReferences": {},
  "source": "pragma solidity >=0.4.22 <0.9.0;\n\ncontract Reservation {\n    uint256 public maxRooms = 20;\n    uint256 public maxSlots = 24;\n    uint256 public maxBookingsPerCompany = 10;\n\n    struct User {\n        uint256 id;\n        string company;\n        bool set;\n    }\n\n    struct Room {\n        uint256 id;\n        string name;\n    }\n\n    struct Booking {\n        address user;\n        uint256 roomId;\n        string company;\n        string day; // String of the selected day\n        string hour; // String with the slot\n        bool isBooked;\n    }\n\n    string[24] slots = [\n        \"00:00\",\n        \"01:00\",\n        \"02:00\",\n        \"03:00\",\n        \"04:00\",\n        \"05:00\",\n        \"06:00\",\n        \"07:00\",\n        \"08:00\",\n        \"09:00\",\n        \"10:00\",\n        \"11:00\",\n        \"12:00\",\n        \"13:00\",\n        \"14:00\",\n        \"15:00\",\n        \"16:00\",\n        \"17:00\",\n        \"18:00\",\n        \"19:00\",\n        \"20:00\",\n        \"21:00\",\n        \"22:00\",\n        \"23:00\"\n    ];\n\n    mapping(address => User) public users;\n    uint256 public usersCount;\n    mapping(uint256 => Room) public rooms;\n    uint256 public roomsCount;\n\n    // ROOM - DAY - HOUR\n    mapping(uint256 => mapping(string => mapping(string => Booking)))\n        public bookings;\n    // COMPANY - DAY - HOUR\n    mapping(string => mapping(string => mapping(string => uint256)))\n        public bookingsCount;\n\n    event RoomAdded(uint256 id, string name);\n    event BookingCancelled(\n        address user,\n        uint256 roomId,\n        string company,\n        string day,\n        string hour,\n        bool isBooked\n    );\n    event BookingAdded(\n        address user,\n        uint256 roomId,\n        string company,\n        string day,\n        string hour,\n        bool isBooked\n    );\n    event BookingFailed(\n        address user,\n        uint256 roomId,\n        string company,\n        string day,\n        string hour,\n        bool isBooked\n    );\n\n    function append(string memory a, string memory b)\n        internal\n        pure\n        returns (string memory)\n    {\n        return string(abi.encodePacked(a, b));\n    }\n\n    function toString(uint256 value) internal pure returns (string memory) {\n        if (value == 0) {\n            return \"0\";\n        }\n        uint256 temp = value;\n        uint256 digits;\n        while (temp != 0) {\n            digits++;\n            temp /= 10;\n        }\n        bytes memory buffer = new bytes(digits);\n        while (value != 0) {\n            digits -= 1;\n            buffer[digits] = bytes1(uint8(48 + uint256(value % 10)));\n            value /= 10;\n        }\n        return string(buffer);\n    }\n\n    constructor() {\n        roomsCount = 0;\n        usersCount = 0;\n\n        // NOTE: We assume that exists an external service registering users.\n        createUser(0, 0xB1E2cc5abb7a289060e85D156B039f9b0b81eF39, \"CocaCola\");\n        createUser(1, 0x781b25dda486994bEA9eAD7f9C90fFB001816944, \"CocaCola\");\n        createUser(2, 0x95cc8b1391664bDB54d262618bbf3f89b7644551, \"CocaCola\");\n        createUser(3, 0xDA9967309B1a83E6286fC8117fC519847e2Cc858, \"CocaCola\");\n        createUser(4, 0x38753DF5003429CA9FF2Cc229C4dA70A639e4Ad1, \"CocaCola\");\n        createUser(5, 0xA559396f98ff5b9aec965934E077b79BDe0E2e16, \"PepsiCola\");\n        createUser(6, 0xa66Cac55f34C1705D6c6Ca8c8F482D019e30f2A6, \"PepsiCola\");\n        createUser(7, 0x9A4b515B2b9362766F34126555503912C1775771, \"PepsiCola\");\n        createUser(8, 0xF59515Fb5B4fcaad851972EB4b3Bd18fE3C17253, \"PepsiCola\");\n        createUser(9, 0x70E1b47C4EE2353d0148De9cdDd6f797E7ec7CC6, \"PepsiCola\");\n\n        for (uint256 i = 0; i < maxRooms; i++) {\n            addRoom(append(\"Room \", toString(i)));\n        }\n    }\n\n    function createUser(\n        uint256 _userId,\n        address _userAddress,\n        string memory _userCompany\n    ) private {\n        User storage user = users[_userAddress];\n        require(!user.set);\n\n        users[_userAddress] = User({\n            id: _userId,\n            company: _userCompany,\n            set: true\n        });\n\n        usersCount++;\n    }\n\n    function addRoom(string memory _name) private {\n        rooms[roomsCount] = Room(roomsCount, _name);\n        roomsCount++;\n\n        emit RoomAdded(roomsCount, _name);\n    }\n\n    function addBooking(\n        uint256 _roomId,\n        string memory _day,\n        string memory _hour\n    ) public {\n        if (\n            _isRoomAvailable(_roomId, _day, _hour) &&\n            bookingsCount[users[msg.sender].company][_day][_hour] <\n            maxBookingsPerCompany\n        ) {\n            bookings[_roomId][_day][_hour] = Booking(\n                msg.sender,\n                _roomId,\n                users[msg.sender].company,\n                _day,\n                _hour,\n                true\n            );\n\n            bookingsCount[users[msg.sender].company][_day][_hour]++;\n\n            emit BookingAdded(\n                msg.sender,\n                _roomId,\n                users[msg.sender].company,\n                _day,\n                _hour,\n                true\n            );\n            return;\n        }\n        emit BookingFailed(\n            msg.sender,\n            _roomId,\n            users[msg.sender].company,\n            _day,\n            _hour,\n            false\n        );\n    }\n\n    function _isRoomAvailable(\n        uint256 _roomId,\n        string memory _day,\n        string memory _hour\n    ) private view returns (bool) {\n        if (bookings[_roomId][_day][_hour].isBooked) {\n            return false;\n        }\n        return true;\n    }\n\n    function cancelBooking(\n        uint256 _roomId,\n        string memory _day,\n        string memory _hour\n    ) public {\n        require(bookings[_roomId][_day][_hour].user == msg.sender);\n        bookings[_roomId][_day][_hour].isBooked = false;\n        bookingsCount[users[msg.sender].company][_day][_hour]--;\n\n        emit BookingCancelled(\n            msg.sender,\n            _roomId,\n            users[msg.sender].company,\n            _day,\n            _hour,\n            false\n        );\n    }\n\n    function getAvailabilities(uint256 _roomId, string memory _day)\n        public\n        view\n        returns (Booking[] memory)\n    {\n        Booking[] memory availabilities = new Booking[](maxSlots);\n\n        for (uint256 i = 0; i < slots.length; i++) {\n            if (bookings[_roomId][_day][slots[i]].isBooked) {\n                availabilities[i] = bookings[_roomId][_day][slots[i]];\n            } else {\n                availabilities[i] = Booking(\n                    address(0),\n                    _roomId,\n                    \"\",\n                    _day,\n                    slots[i],\n                    false\n                );\n            }\n        }\n        return availabilities;\n    }\n\n    // function getAvailabilities(string memory _day)\n    //     public\n    //     view\n    //     returns (Booking[][] memory)\n    // {\n    //     Booking[][] memory availabilities = new Booking[][](maxRooms);\n    //     for (uint256 i = 0; i < roomsCount; i++) {\n    //         availabilities[i] = _getAvailabilityByRoomAndDay(i, _day);\n    //     }\n    //     return availabilities;\n    // }\n\n    // function _getAvailabilityByRoomAndDay(uint256 _roomId, string memory _day)\n    //     private\n    //     view\n    //     returns (Booking[] memory)\n    // {\n    //     Booking[] memory availabilities = new Booking[](maxSlots);\n\n    //     for (uint256 i = 0; i < slots.length; i++) {\n    //         if (bookings[_roomId][_day][slots[i]].isBooked) {\n    //             availabilities[i] = bookings[_roomId][_day][slots[i]];\n    //         } else {\n    //             availabilities[i] = Booking(\n    //                 address(0),\n    //                 _roomId,\n    //                 \"\",\n    //                 _day,\n    //                 slots[i],\n    //                 false\n    //             );\n    //         }\n    //     }\n    //     return availabilities;\n    // }\n}\n",
  "sourcePath": "/Users/neolitic/Projects/consensys/bookings/contracts/Reservation.sol",
  "compiler": {
    "name": "solc",
    "version": "0.8.10+commit.fc410830.Emscripten.clang"
  },
  "schemaVersion": "3.4.3",
  "updatedAt": "2021-12-14T16:24:46.675Z",
  "networkType": "ethereum",
  "devdoc": {
    "kind": "dev",
    "methods": {},
    "version": 1
  },
  "userdoc": {
    "kind": "user",
    "methods": {},
    "version": 1
  }
}