{
  "contractName": "Reservation",
  "abi": [
    {
      "inputs": [],
      "stateMutability": "nonpayable",
      "type": "constructor"
    },
    {
      "anonymous": false,
      "inputs": [
        {
          "indexed": false,
          "internalType": "uint256",
          "name": "id",
          "type": "uint256"
        },
        {
          "indexed": false,
          "internalType": "address",
          "name": "user",
          "type": "address"
        },
        {
          "indexed": false,
          "internalType": "uint256",
          "name": "roomId",
          "type": "uint256"
        },
        {
          "indexed": false,
          "internalType": "uint256",
          "name": "startDate",
          "type": "uint256"
        }
      ],
      "name": "BookingAdded",
      "type": "event"
    },
    {
      "anonymous": false,
      "inputs": [
        {
          "indexed": false,
          "internalType": "uint256",
          "name": "id",
          "type": "uint256"
        },
        {
          "indexed": false,
          "internalType": "address",
          "name": "user",
          "type": "address"
        }
      ],
      "name": "BookingCancelled",
      "type": "event"
    },
    {
      "anonymous": false,
      "inputs": [
        {
          "indexed": false,
          "internalType": "uint256",
          "name": "id",
          "type": "uint256"
        },
        {
          "indexed": false,
          "internalType": "address",
          "name": "user",
          "type": "address"
        },
        {
          "indexed": false,
          "internalType": "uint256",
          "name": "roomId",
          "type": "uint256"
        },
        {
          "indexed": false,
          "internalType": "uint256",
          "name": "startDate",
          "type": "uint256"
        }
      ],
      "name": "BookingFailed",
      "type": "event"
    },
    {
      "anonymous": false,
      "inputs": [
        {
          "indexed": false,
          "internalType": "uint256",
          "name": "id",
          "type": "uint256"
        },
        {
          "indexed": false,
          "internalType": "string",
          "name": "name",
          "type": "string"
        }
      ],
      "name": "RoomAdded",
      "type": "event"
    },
    {
      "inputs": [
        {
          "internalType": "uint256",
          "name": "",
          "type": "uint256"
        }
      ],
      "name": "bookings",
      "outputs": [
        {
          "internalType": "uint256",
          "name": "id",
          "type": "uint256"
        },
        {
          "internalType": "address",
          "name": "user",
          "type": "address"
        },
        {
          "internalType": "uint256",
          "name": "roomId",
          "type": "uint256"
        },
        {
          "internalType": "uint256",
          "name": "startDate",
          "type": "uint256"
        },
        {
          "internalType": "bool",
          "name": "cancelled",
          "type": "bool"
        }
      ],
      "stateMutability": "view",
      "type": "function",
      "constant": true
    },
    {
      "inputs": [],
      "name": "bookingsCount",
      "outputs": [
        {
          "internalType": "uint256",
          "name": "",
          "type": "uint256"
        }
      ],
      "stateMutability": "view",
      "type": "function",
      "constant": true
    },
    {
      "inputs": [
        {
          "internalType": "string",
          "name": "",
          "type": "string"
        }
      ],
      "name": "companyBookingsCount",
      "outputs": [
        {
          "internalType": "uint256",
          "name": "",
          "type": "uint256"
        }
      ],
      "stateMutability": "view",
      "type": "function",
      "constant": true
    },
    {
      "inputs": [],
      "name": "maxBookingsPerCompany",
      "outputs": [
        {
          "internalType": "uint256",
          "name": "",
          "type": "uint256"
        }
      ],
      "stateMutability": "view",
      "type": "function",
      "constant": true
    },
    {
      "inputs": [],
      "name": "maxRooms",
      "outputs": [
        {
          "internalType": "uint256",
          "name": "",
          "type": "uint256"
        }
      ],
      "stateMutability": "view",
      "type": "function",
      "constant": true
    },
    {
      "inputs": [
        {
          "internalType": "uint256",
          "name": "",
          "type": "uint256"
        }
      ],
      "name": "rooms",
      "outputs": [
        {
          "internalType": "uint256",
          "name": "id",
          "type": "uint256"
        },
        {
          "internalType": "string",
          "name": "name",
          "type": "string"
        }
      ],
      "stateMutability": "view",
      "type": "function",
      "constant": true
    },
    {
      "inputs": [],
      "name": "roomsCount",
      "outputs": [
        {
          "internalType": "uint256",
          "name": "",
          "type": "uint256"
        }
      ],
      "stateMutability": "view",
      "type": "function",
      "constant": true
    },
    {
      "inputs": [
        {
          "internalType": "address",
          "name": "",
          "type": "address"
        }
      ],
      "name": "users",
      "outputs": [
        {
          "internalType": "uint256",
          "name": "id",
          "type": "uint256"
        },
        {
          "internalType": "string",
          "name": "company",
          "type": "string"
        },
        {
          "internalType": "bool",
          "name": "set",
          "type": "bool"
        }
      ],
      "stateMutability": "view",
      "type": "function",
      "constant": true
    },
    {
      "inputs": [],
      "name": "usersCount",
      "outputs": [
        {
          "internalType": "uint256",
          "name": "",
          "type": "uint256"
        }
      ],
      "stateMutability": "view",
      "type": "function",
      "constant": true
    },
    {
      "inputs": [
        {
          "internalType": "uint256",
          "name": "_roomId",
          "type": "uint256"
        },
        {
          "internalType": "uint256",
          "name": "_startDate",
          "type": "uint256"
        }
      ],
      "name": "addBooking",
      "outputs": [],
      "stateMutability": "nonpayable",
      "type": "function"
    },
    {
      "inputs": [
        {
          "internalType": "uint256",
          "name": "_id",
          "type": "uint256"
        }
      ],
      "name": "cancelBooking",
      "outputs": [],
      "stateMutability": "nonpayable",
      "type": "function"
    },
    {
      "inputs": [
        {
          "internalType": "uint256",
          "name": "_roomId",
          "type": "uint256"
        },
        {
          "internalType": "uint256",
          "name": "_startDate",
          "type": "uint256"
        }
      ],
      "name": "getAvailability",
      "outputs": [
        {
          "internalType": "bool",
          "name": "",
          "type": "bool"
        }
      ],
      "stateMutability": "view",
      "type": "function",
      "constant": true
    },
    {
      "inputs": [
        {
          "internalType": "uint256",
          "name": "_roomId",
          "type": "uint256"
        }
      ],
      "name": "getRoomBookings",
      "outputs": [
        {
          "components": [
            {
              "internalType": "uint256",
              "name": "id",
              "type": "uint256"
            },
            {
              "internalType": "address",
              "name": "user",
              "type": "address"
            },
            {
              "internalType": "uint256",
              "name": "roomId",
              "type": "uint256"
            },
            {
              "internalType": "uint256",
              "name": "startDate",
              "type": "uint256"
            },
            {
              "internalType": "bool",
              "name": "cancelled",
              "type": "bool"
            }
          ],
          "internalType": "struct Reservation.Booking[]",
          "name": "",
          "type": "tuple[]"
        }
      ],
      "stateMutability": "view",
      "type": "function",
      "constant": true
    }
  ],
  "bytecode": "0x60806040526014600055600a6001553480156200001b57600080fd5b50600060068190555060006008819055506000600381905550620000916000732cdb90d0f33fde3c8802b021452ccfe5e1d255746040518060400160405280600881526020017f436f6361436f6c610000000000000000000000000000000000000000000000008152506200018060201b60201c565b620000ee600173a4387a7e4e854da0c83adcc9514ebe581dce85d46040518060400160405280600981526020017f5065707369436f6c6100000000000000000000000000000000000000000000008152506200018060201b60201c565b60005b600054811015620001795762000163620001576040518060400160405280600581526020017f526f6f6d200000000000000000000000000000000000000000000000000000008152506200014b84620002a960201b60201c565b6200042360201b60201c565b6200045160201b60201c565b80806200017090620005ec565b915050620000f1565b5062000987565b6000600260008473ffffffffffffffffffffffffffffffffffffffff1673ffffffffffffffffffffffffffffffffffffffff16815260200190815260200160002090508060020160009054906101000a900460ff1615620001e057600080fd5b604051806060016040528085815260200183815260200160011515815250600260008573ffffffffffffffffffffffffffffffffffffffff1673ffffffffffffffffffffffffffffffffffffffff1681526020019081526020016000206000820151816000015560208201518160010190805190602001906200026592919062000503565b5060408201518160020160006101000a81548160ff021916908315150217905550905050600360008154809291906200029e90620005ec565b919050555050505050565b60606000821415620002f3576040518060400160405280600181526020017f300000000000000000000000000000000000000000000000000000000000000081525090506200041e565b600082905060005b600082146200032b5780806200031190620005ec565b915050600a8262000323919062000669565b9150620002fb565b60008167ffffffffffffffff8111156200034a5762000349620006a1565b5b6040519080825280601f01601f1916602001820160405280156200037d5781602001600182028036833780820191505090505b5090505b600085146200041757600182620003999190620006d0565b9150600a85620003aa91906200070b565b6030620003b8919062000743565b60f81b818381518110620003d157620003d0620007a0565b5b60200101907effffffffffffffffffffffffffffffffffffffffffffffffffffffffffffff1916908160001a905350600a856200040f919062000669565b945062000381565b8093505050505b919050565b606082826040516020016200043a92919062000852565b604051602081830303815290604052905092915050565b6040518060400160405280600854815260200182815250600760006008548152602001908152602001600020600082015181600001556020820151816001019080519060200190620004a592919062000503565b5090505060086000815480929190620004be90620005ec565b91905055507f1faa4180c1828eb18f05235f11241ad455e5b3554bdc4594ec6a4d1a261f76d160085482604051620004f8929190620008ee565b60405180910390a150565b828054620005119062000951565b90600052602060002090601f01602090048101928262000535576000855562000581565b82601f106200055057805160ff191683800117855562000581565b8280016001018555821562000581579182015b828111156200058057825182559160200191906001019062000563565b5b50905062000590919062000594565b5090565b5b80821115620005af57600081600090555060010162000595565b5090565b7f4e487b7100000000000000000000000000000000000000000000000000000000600052601160045260246000fd5b6000819050919050565b6000620005f982620005e2565b91507fffffffffffffffffffffffffffffffffffffffffffffffffffffffffffffffff8214156200062f576200062e620005b3565b5b600182019050919050565b7f4e487b7100000000000000000000000000000000000000000000000000000000600052601260045260246000fd5b60006200067682620005e2565b91506200068383620005e2565b9250826200069657620006956200063a565b5b828204905092915050565b7f4e487b7100000000000000000000000000000000000000000000000000000000600052604160045260246000fd5b6000620006dd82620005e2565b9150620006ea83620005e2565b9250828210156200070057620006ff620005b3565b5b828203905092915050565b60006200071882620005e2565b91506200072583620005e2565b9250826200073857620007376200063a565b5b828206905092915050565b60006200075082620005e2565b91506200075d83620005e2565b9250827fffffffffffffffffffffffffffffffffffffffffffffffffffffffffffffffff03821115620007955762000794620005b3565b5b828201905092915050565b7f4e487b7100000000000000000000000000000000000000000000000000000000600052603260045260246000fd5b600081519050919050565b600081905092915050565b60005b8381101562000805578082015181840152602081019050620007e8565b8381111562000815576000848401525b50505050565b60006200082882620007cf565b620008348185620007da565b935062000846818560208601620007e5565b80840191505092915050565b60006200086082856200081b565b91506200086e82846200081b565b91508190509392505050565b6200088581620005e2565b82525050565b600082825260208201905092915050565b6000601f19601f8301169050919050565b6000620008ba82620007cf565b620008c681856200088b565b9350620008d8818560208601620007e5565b620008e3816200089c565b840191505092915050565b60006040820190506200090560008301856200087a565b8181036020830152620009198184620008ad565b90509392505050565b7f4e487b7100000000000000000000000000000000000000000000000000000000600052602260045260246000fd5b600060028204905060018216806200096a57607f821691505b6020821081141562000981576200098062000922565b5b50919050565b61151480620009976000396000f3fe608060405234801561001057600080fd5b50600436106100cf5760003560e01c806341b82f3f1161008c578063b5d056c211610066578063b5d056c21461022d578063b6406b181461025d578063b71416d01461027b578063c056696614610299576100cf565b806341b82f3f146101bf5780636ba13a82146101dd578063a87430ba146101fb576100cf565b80630dca825e146100d45780631bae0ac8146100f05780631cb20b8a146101215780631d66216d146101515780631dab301e1461016f57806322891dc7146101a3575b600080fd5b6100ee60048036038101906100e99190610c8d565b6102c9565b005b61010a60048036038101906101059190610c8d565b610417565b604051610118929190610d62565b60405180910390f35b61013b60048036038101906101369190610ec7565b6104c3565b6040516101489190610f10565b60405180910390f35b6101596104f1565b6040516101669190610f10565b60405180910390f35b61018960048036038101906101849190610c8d565b6104f7565b60405161019a959493929190610f87565b60405180910390f35b6101bd60048036038101906101b89190610fda565b61055a565b005b6101c76107c9565b6040516101d49190610f10565b60405180910390f35b6101e56107cf565b6040516101f29190610f10565b60405180910390f35b61021560048036038101906102109190611046565b6107d5565b60405161022493929190611073565b60405180910390f35b61024760048036038101906102429190610fda565b610894565b60405161025491906110b1565b60405180910390f35b610265610925565b6040516102729190610f10565b60405180910390f35b61028361092b565b6040516102909190610f10565b60405180910390f35b6102b360048036038101906102ae9190610c8d565b610931565b6040516102c09190611210565b60405180910390f35b3373ffffffffffffffffffffffffffffffffffffffff166005600083815260200190815260200160002060010160009054906101000a900473ffffffffffffffffffffffffffffffffffffffff1673ffffffffffffffffffffffffffffffffffffffff161461033757600080fd5b60016005600083815260200190815260200160002060040160006101000a81548160ff0219169083151502179055506004600260003373ffffffffffffffffffffffffffffffffffffffff1673ffffffffffffffffffffffffffffffffffffffff1681526020019081526020016000206001016040516103b79190611332565b908152602001604051809103902060008154809291906103d690611378565b91905055507f405ffc42ca8bb68e3a98a64aa11cec9f085da8d5fab0e36c73abff99bad8cdc9813360405161040c9291906113a2565b60405180910390a150565b600760205280600052604060002060009150905080600001549080600101805461044090611261565b80601f016020809104026020016040519081016040528092919081815260200182805461046c90611261565b80156104b95780601f1061048e576101008083540402835291602001916104b9565b820191906000526020600020905b81548152906001019060200180831161049c57829003601f168201915b5050505050905082565b6004818051602081018201805184825260208301602085012081835280955050505050506000915090505481565b60005481565b60056020528060005260406000206000915090508060000154908060010160009054906101000a900473ffffffffffffffffffffffffffffffffffffffff16908060020154908060030154908060040160009054906101000a900460ff16905085565b6001546004600260003373ffffffffffffffffffffffffffffffffffffffff1673ffffffffffffffffffffffffffffffffffffffff1681526020019081526020016000206001016040516105ae9190611332565b908152602001604051809103902054106105c757600080fd5b6105d18282610b03565b610785576040518060a0016040528060065481526020013373ffffffffffffffffffffffffffffffffffffffff168152602001838152602001828152602001600015158152506005600060065481526020019081526020016000206000820151816000015560208201518160010160006101000a81548173ffffffffffffffffffffffffffffffffffffffff021916908373ffffffffffffffffffffffffffffffffffffffff160217905550604082015181600201556060820151816003015560808201518160040160006101000a81548160ff021916908315150217905550905050600660008154809291906106c7906113cb565b91905055506004600260003373ffffffffffffffffffffffffffffffffffffffff1673ffffffffffffffffffffffffffffffffffffffff16815260200190815260200160002060010160405161071d9190611332565b9081526020016040518091039020600081548092919061073c906113cb565b91905055507f83ba5f5f74f0422d807c49114b1c7ea24b9bc2765c2aac0b7b3fe29cac7073f96006543384846040516107789493929190611414565b60405180910390a16107c5565b7fae71516c2f1ed6c06f6eded19c487c550bd10f7c85806dd2d10d2aaf6d8cadaf6006543384846040516107bc9493929190611414565b60405180910390a15b5050565b60085481565b60035481565b60026020528060005260406000206000915090508060000154908060010180546107fe90611261565b80601f016020809104026020016040519081016040528092919081815260200182805461082a90611261565b80156108775780601f1061084c57610100808354040283529160200191610877565b820191906000526020600020905b81548152906001019060200180831161085a57829003601f168201915b5050505050908060020160009054906101000a900460ff16905083565b60006001546004600260003373ffffffffffffffffffffffffffffffffffffffff1673ffffffffffffffffffffffffffffffffffffffff1681526020019081526020016000206001016040516108ea9190611332565b9081526020016040518091039020541061090357600080fd5b61090d8383610b03565b61091a576001905061091f565b600090505b92915050565b60065481565b60015481565b60606000805b60065481101561098157836005600083815260200190815260200160002060020154141561096e57818061096a906113cb565b9250505b8080610979906113cb565b915050610937565b5060008167ffffffffffffffff81111561099e5761099d610d9c565b5b6040519080825280602002602001820160405280156109d757816020015b6109c4610bfc565b8152602001906001900390816109bc5790505b509050600080600090505b600654811015610af7578560056000838152602001908152602001600020600201541415610ae457600560008281526020019081526020016000206040518060a0016040529081600082015481526020016001820160009054906101000a900473ffffffffffffffffffffffffffffffffffffffff1673ffffffffffffffffffffffffffffffffffffffff1673ffffffffffffffffffffffffffffffffffffffff16815260200160028201548152602001600382015481526020016004820160009054906101000a900460ff161515151581525050838381518110610aca57610ac9611459565b5b60200260200101819052508180610ae0906113cb565b9250505b8080610aef906113cb565b9150506109e2565b50819350505050919050565b600080600090505b600654811015610b7957836005600083815260200190815260200160002060020154148015610b575750610b55600560008381526020019081526020016000206003015484610b85565b155b15610b66576001915050610b7f565b8080610b71906113cb565b915050610b0b565b50600090505b92915050565b6000808390506000610e1085610b9b9190611488565b905060008490506000610e1086610bb29190611488565b9050838110158015610bc45750828111155b80610bdb5750838210158015610bda5750828211155b5b15610bed576000945050505050610bf6565b60019450505050505b92915050565b6040518060a0016040528060008152602001600073ffffffffffffffffffffffffffffffffffffffff16815260200160008152602001600081526020016000151581525090565b6000604051905090565b600080fd5b600080fd5b6000819050919050565b610c6a81610c57565b8114610c7557600080fd5b50565b600081359050610c8781610c61565b92915050565b600060208284031215610ca357610ca2610c4d565b5b6000610cb184828501610c78565b91505092915050565b610cc381610c57565b82525050565b600081519050919050565b600082825260208201905092915050565b60005b83811015610d03578082015181840152602081019050610ce8565b83811115610d12576000848401525b50505050565b6000601f19601f8301169050919050565b6000610d3482610cc9565b610d3e8185610cd4565b9350610d4e818560208601610ce5565b610d5781610d18565b840191505092915050565b6000604082019050610d776000830185610cba565b8181036020830152610d898184610d29565b90509392505050565b600080fd5b600080fd5b7f4e487b7100000000000000000000000000000000000000000000000000000000600052604160045260246000fd5b610dd482610d18565b810181811067ffffffffffffffff82111715610df357610df2610d9c565b5b80604052505050565b6000610e06610c43565b9050610e128282610dcb565b919050565b600067ffffffffffffffff821115610e3257610e31610d9c565b5b610e3b82610d18565b9050602081019050919050565b82818337600083830152505050565b6000610e6a610e6584610e17565b610dfc565b905082815260208101848484011115610e8657610e85610d97565b5b610e91848285610e48565b509392505050565b600082601f830112610eae57610ead610d92565b5b8135610ebe848260208601610e57565b91505092915050565b600060208284031215610edd57610edc610c4d565b5b600082013567ffffffffffffffff811115610efb57610efa610c52565b5b610f0784828501610e99565b91505092915050565b6000602082019050610f256000830184610cba565b92915050565b600073ffffffffffffffffffffffffffffffffffffffff82169050919050565b6000610f5682610f2b565b9050919050565b610f6681610f4b565b82525050565b60008115159050919050565b610f8181610f6c565b82525050565b600060a082019050610f9c6000830188610cba565b610fa96020830187610f5d565b610fb66040830186610cba565b610fc36060830185610cba565b610fd06080830184610f78565b9695505050505050565b60008060408385031215610ff157610ff0610c4d565b5b6000610fff85828601610c78565b925050602061101085828601610c78565b9150509250929050565b61102381610f4b565b811461102e57600080fd5b50565b6000813590506110408161101a565b92915050565b60006020828403121561105c5761105b610c4d565b5b600061106a84828501611031565b91505092915050565b60006060820190506110886000830186610cba565b818103602083015261109a8185610d29565b90506110a96040830184610f78565b949350505050565b60006020820190506110c66000830184610f78565b92915050565b600081519050919050565b600082825260208201905092915050565b6000819050602082019050919050565b61110181610c57565b82525050565b61111081610f4b565b82525050565b61111f81610f6c565b82525050565b60a08201600082015161113b60008501826110f8565b50602082015161114e6020850182611107565b50604082015161116160408501826110f8565b50606082015161117460608501826110f8565b5060808201516111876080850182611116565b50505050565b60006111998383611125565b60a08301905092915050565b6000602082019050919050565b60006111bd826110cc565b6111c781856110d7565b93506111d2836110e8565b8060005b838110156112035781516111ea888261118d565b97506111f5836111a5565b9250506001810190506111d6565b5085935050505092915050565b6000602082019050818103600083015261122a81846111b2565b905092915050565b7f4e487b7100000000000000000000000000000000000000000000000000000000600052602260045260246000fd5b6000600282049050600182168061127957607f821691505b6020821081141561128d5761128c611232565b5b50919050565b600081905092915050565b60008190508160005260206000209050919050565b600081546112c081611261565b6112ca8186611293565b945060018216600081146112e557600181146112f657611329565b60ff19831686528186019350611329565b6112ff8561129e565b60005b8381101561132157815481890152600182019150602081019050611302565b838801955050505b50505092915050565b600061133e82846112b3565b915081905092915050565b7f4e487b7100000000000000000000000000000000000000000000000000000000600052601160045260246000fd5b600061138382610c57565b9150600082141561139757611396611349565b5b600182039050919050565b60006040820190506113b76000830185610cba565b6113c46020830184610f5d565b9392505050565b60006113d682610c57565b91507fffffffffffffffffffffffffffffffffffffffffffffffffffffffffffffffff82141561140957611408611349565b5b600182019050919050565b60006080820190506114296000830187610cba565b6114366020830186610f5d565b6114436040830185610cba565b6114506060830184610cba565b95945050505050565b7f4e487b7100000000000000000000000000000000000000000000000000000000600052603260045260246000fd5b600061149382610c57565b915061149e83610c57565b9250827fffffffffffffffffffffffffffffffffffffffffffffffffffffffffffffffff038211156114d3576114d2611349565b5b82820190509291505056fea2646970667358221220e134f0836c2ad119f57d9f6e3b97dd2e7ae3b615962334da444fef26868d8a8864736f6c634300080a0033",
  "immutableReferences": {},
  "source": "pragma solidity >=0.4.22 <0.9.0;\n\ncontract Reservation {\n    uint256 public maxRooms = 20;\n    uint256 public maxBookingsPerCompany = 10;\n\n    struct User {\n        uint256 id;\n        string company;\n        bool set;\n    }\n\n    struct Room {\n        uint256 id;\n        string name;\n    }\n\n    struct Booking {\n        uint256 id;\n        address user;\n        uint256 roomId;\n        uint256 startDate;\n        bool cancelled;\n    }\n\n    mapping(address => User) public users;\n    uint256 public usersCount;\n    mapping(string => uint256) public companyBookingsCount;\n    mapping(uint256 => Booking) public bookings;\n    uint256 public bookingsCount;\n    mapping(uint256 => Room) public rooms;\n    uint256 public roomsCount;\n\n    event RoomAdded(uint256 id, string name);\n    event BookingCancelled(uint256 id, address user);\n    event BookingAdded(\n        uint256 id,\n        address user,\n        uint256 roomId,\n        uint256 startDate\n    );\n    event BookingFailed(\n        uint256 id,\n        address user,\n        uint256 roomId,\n        uint256 startDate\n    );\n\n    function append(string memory a, string memory b)\n        internal\n        pure\n        returns (string memory)\n    {\n        return string(abi.encodePacked(a, b));\n    }\n\n    function toString(uint256 value) internal pure returns (string memory) {\n        if (value == 0) {\n            return \"0\";\n        }\n        uint256 temp = value;\n        uint256 digits;\n        while (temp != 0) {\n            digits++;\n            temp /= 10;\n        }\n        bytes memory buffer = new bytes(digits);\n        while (value != 0) {\n            digits -= 1;\n            buffer[digits] = bytes1(uint8(48 + uint256(value % 10)));\n            value /= 10;\n        }\n        return string(buffer);\n    }\n\n    constructor() {\n        bookingsCount = 0;\n        roomsCount = 0;\n        usersCount = 0;\n\n        // NOTE: We assume that exists an external service registering users.\n        createUser(0, 0x2cDB90d0F33FDE3c8802B021452cCfe5e1d25574, \"CocaCola\");\n        createUser(1, 0xa4387a7E4e854DA0c83ADCC9514eBe581DCe85D4, \"PepsiCola\");\n\n        for (uint256 i = 0; i < maxRooms; i++) {\n            addRoom(append(\"Room \", toString(i)));\n        }\n    }\n\n    function createUser(\n        uint256 _userId,\n        address _userAddress,\n        string memory _userCompany\n    ) private {\n        User storage user = users[_userAddress];\n        require(!user.set);\n\n        users[_userAddress] = User({\n            id: _userId,\n            company: _userCompany,\n            set: true\n        });\n\n        usersCount++;\n    }\n\n    function addRoom(string memory _name) private {\n        rooms[roomsCount] = Room(roomsCount, _name);\n        roomsCount++;\n\n        emit RoomAdded(roomsCount, _name);\n    }\n\n    function addBooking(uint256 _roomId, uint256 _startDate) public {\n        require(\n            companyBookingsCount[users[msg.sender].company] <\n                maxBookingsPerCompany\n        );\n        if (!_isRoomBooked(_roomId, _startDate)) {\n            bookings[bookingsCount] = Booking(\n                bookingsCount,\n                msg.sender,\n                _roomId,\n                _startDate,\n                false\n            );\n            bookingsCount++;\n            companyBookingsCount[users[msg.sender].company]++;\n\n            emit BookingAdded(bookingsCount, msg.sender, _roomId, _startDate);\n            return;\n        }\n        emit BookingFailed(bookingsCount, msg.sender, _roomId, _startDate);\n    }\n\n    function cancelBooking(uint256 _id) public {\n        require(bookings[_id].user == msg.sender);\n        bookings[_id].cancelled = true;\n        companyBookingsCount[users[msg.sender].company]--;\n        emit BookingCancelled(_id, msg.sender);\n    }\n\n    function _isRoomBooked(uint256 _roomId, uint256 _startDate)\n        private\n        view\n        returns (bool)\n    {\n        for (uint256 i = 0; i < bookingsCount; i++) {\n            if (\n                bookings[i].roomId == _roomId &&\n                !(_isValidTime(bookings[i].startDate, _startDate))\n            ) {\n                return true;\n            }\n        }\n        return false;\n    }\n\n    function _isValidTime(uint256 _bookingDate, uint256 _startDate)\n        private\n        pure\n        returns (bool)\n    {\n        uint256 startBookingDate = _bookingDate;\n        uint256 endBookingDate = _bookingDate + 1 hours;\n        uint256 startDate = _startDate;\n        uint256 endDate = _startDate + 1 hours;\n\n        if (\n            (endDate >= startBookingDate && endDate <= endBookingDate) ||\n            (startDate >= startBookingDate && startDate <= endBookingDate)\n        ) {\n            return false;\n        }\n        return true;\n    }\n\n    function getAvailability(uint256 _roomId, uint256 _startDate)\n        public\n        view\n        returns (bool)\n    {\n        require(\n            companyBookingsCount[users[msg.sender].company] <\n                maxBookingsPerCompany\n        );\n        if (!_isRoomBooked(_roomId, _startDate)) {\n            return true;\n        }\n        return false;\n    }\n\n    function getRoomBookings(uint256 _roomId)\n        public\n        view\n        returns (Booking[] memory)\n    {\n        uint256 resultCount = 0;\n\n        for (uint256 i = 0; i < bookingsCount; i++) {\n            if (bookings[i].roomId == _roomId) {\n                resultCount++;\n            }\n        }\n\n        Booking[] memory result = new Booking[](resultCount);\n\n        uint256 j;\n\n        for (uint256 i = 0; i < bookingsCount; i++) {\n            if (bookings[i].roomId == _roomId) {\n                result[j] = bookings[i];\n                j++;\n            }\n        }\n\n        return result;\n    }\n}\n",
  "sourcePath": "/Users/neolitic/Projects/consensys/bookings/contracts/Reservation.sol",
  "compiler": {
    "name": "solc",
    "version": "0.8.10+commit.fc410830.Emscripten.clang"
  },
  "schemaVersion": "3.4.3",
  "updatedAt": "2021-12-08T16:05:32.229Z",
  "networkType": "ethereum",
  "devdoc": {
    "kind": "dev",
    "methods": {},
    "version": 1
  },
  "userdoc": {
    "kind": "user",
    "methods": {},
    "version": 1
  }
}